S01D000053656C665F436F6D6D697373696F6E696E675F42504D2E73313951
S10B0000C01F0020CD380100EF
S1130400FFFFFFFFFFFFFFFFFFFFFFFFFE7BFFFF7D
S1130600C01F0020A56E0000C7730000C773000060
S1130610C7730000C7730000C77300000000000028
S1130620000000000000000000000000C77300008C
S1130630C773000000000000C7730000D1A60000CB
S1130640C7730000C7730000C7730000C7730000BE
S1130650C7730000C7730000C7730000C7730000AE
S1130660C7730000C7730000C7730000C77300009E
S1130670C7730000C7730000C7730000C77300008E
S1130680C7730000C7730000C7730000C77300007E
S1130690C7730000C7730000C7730000C77300006E
S11306A0C7730000C7730000C7730000C77300005E
S11306B00000000000000000C7730000A7AE0000A7
S11306C0A7AE000051AF000051AF000007B000001A
S11306D007B000000000000000000000C773000025
S11306E0C7730000C773000007450000C77300000C
S11306F0C7730000000000000000000000000000BC
S1130700C7730000C7730000C7730000C7730000FD
S1130710DF3D0000000000000000000000000000B9
S1130720C7730000C77300008F6E0000C77300001A
S1130730C7730000C7730000C7730000C7730000CD
S1130740C77300000000000000000000000000006B
S1130750000000000000000000000000C77300005B
S10B0760C7730000993D00007D
S113076810B5032002F0E5F8DFF8F44B002204F199
S11307782A0104F1080002F0B3FA002204F1DE01B0
S113078804F10A0002F0ACFA0020A0814FF6FD1132
S1130798A089084040F0200204F12C0104F10C0067
S11307A802F09EFA0122611C204602F091F9A08908
S11307B84FF6FE7101EA000204F12C0104F10C0069
S11307C802F08EFA002204F1F80104F1580002F054
S11307D800FB002204F1F40104F1540002F0F9FAD8
S11307E8142204F1FC0104F15C0002F0F2FA002284
S11307F804F13A0104F11A0002F072FA002204F139
S11308083C0104F11C0002F06BFA002204F13E01E1
S113081804F11E0002F064FA002204F12E0104F12E
S11308280E0002F05DFA002204F1320104F1120014
S113083802F056FA002204F1360104F1160002F01F
S11308484FFA002204F1300104F1100002F048FAD2
S1130858002204F1340104F1140002F041FA0022E8
S113086804F1380104F1180002F03AFA002204F104
S1130878400104F1200002F033FA002204F1E801F7
S113088804F1480002F0A5FA002204F1EC0104F195
S11308984C0002F09EFA002204F1F00104F1500029
S11308A802F097FA002204F1420104F1220002F056
S11308B817FA002204F1E00104F1240002F010FA0E
S11308C8002204F5807104F1600002F082FA00222B
S11308D804F5827104F1640002F07BFA002204F545
S11308E8847104F1680002F074FA002204F5867138
S11308F804F16C0002F06DFA002204F5887104F129
S1130908700002F066FA002204F58A7104F174009A
S113091802F05FFA002204F58C7104F1780002F009
S113092858FA002204F58E7104F17C0002F051FAA1
S1130938002204F1E20104F1260002F0D1F90022B8
S113094804F5907104F1800002F043FA0020C4F821
S1130958B00000214FF0FF30C4F8D800C4F8D40028
S1130968C4F8C400C4F8C800C4F8CC00C4F8C00073
S1130978C4F8BC00C4F8B800C4F8B410FF20A071CF
S1130988C4F89C101420A070C4F8A010EB20607167
S1130998C4F8A4104FF08040C4F8AC00C4F8981010
S11309A86FF08040C4F89410C4F89010E170C4F853
S11309B8D000002204F1DC01201D02F089F89FED2B
S11309C8620A04F5967104F1880002F05FFA9FED5B
S11309D85F0A04F5927104F1840002F057FA9FED5E
S11309E85A0A04F5947104F18C0002F04FFA02F0EB
S11309F8B1FA03F087F94FF47A714FF47A5003F09F
S1130A0869FC03F07DFD03F0B7FDA11DE01C02F0B5
S1130A186CF804F1B80104F1900002F0E6F904F16D
S1130A28BC0104F1940002F0E0F904F1C00104F1FE
S1130A38980002F0DAF904F1C40104F19C0002F010
S1130A48D4F904F1C80104F1A00002F0CEF904F1CC
S1130A58D00104F1AC0002F0C8F904F1CC0104F1AE
S1130A68A40002F0C2F904F1DC01201D02F03DF8F3
S1130A7803F041FD00EE100AB8EE400ABDEEC00ACC
S1130A8810EE100A401000EE100AB8EEC00ADFEDAE
S1130A98300A60EE200A9FED2F1A20EE010AFDEEBF
S1130AA8E00ABDEEC00AC4ED240A84ED250A10EE5E
S1130AB8902A04F1B80104F1900002F08AF9D4F8FC
S1130AC8942004F1BC0104F1940002F082F9D4F8F2
S1130AD8942004F1C00104F1980002F07AF900228C
S1130AE8A11DE01C01F0F4FF002204F1C40104F18B
S1130AF89C0002F06EF94FF0804204F1C80104F141
S1130B08A00002F066F94FF0804204F1D00104F12C
S1130B18AC0002F05EF9002204F1CC0104F1A40057
S1130B2802F057F9002204F5987104F1A80002F0C4
S1130B3850F9002204F1DC01201D01F0C9FFBDE8D1
S1130B481040042001F0F5BE0000000000000C4233
S1130B586666863F3333733F2DE9F04703F04AFF57
S1130B68DFF8FC4721786278D2430020D2B2914260
S1130B7818BF0120A189A28DD24392B2914218BF15
S1130B88401C2189628DD24392B2914218BF401C05
S1130B98B4F91A10B4F93A20D24389B292B2914204
S1130BA818BF401CB4F91C10B4F93C20D24389B2D4
S1130BB892B2914218BF401CB4F91E10B4F93E20F9
S1130BC8D24389B292B2914218BF401CB4F92210A0
S1130BD8B4F94220D24389B292B2914218BF401C60
S1130BE8218CB4F84020D24392B2914218BF401CE1
S1130BF820B102220021012003F0B2FF208CDFF88B
S1130C086457012804D03FD3032828D013D33BE0EA
S1130C18DFF854070069A18AA083A08B461A2869C3
S1130C28218B36B2471A3FB27142A1EB0708218AD9
S1130C38414461833EE0DFF830070069218A60831C
S1130C48608B401A0FFA80F82869218B471A3FB243
S1130C58C8F10001CE1BA18A8919A1832AE0DFF813
S1130C6808070069218A6083608B401A0FFA80F8AC
S1130C782869A18AA083A08B461A36B2C8F100005D
S1130C88871B208BC01915E0DFF8DC060169B4F96D
S1130C9810206183B4F91A104069A083A1EB0208FB
S1130CA8B4F91C00B4F91410461A2869B4F91810D8
S1130CB800B2471AE083B4F91A00C0436087B4F954
S1130CC81C00C043A087B4F91E00C043E0876869CC
S1130CD86084B4F922008146C043A4F84200207815
S1130CE8032840F0A48003F0B9FC03F09DF8B4F89D
S1130CF80CA003F0AAF9062808BF4AF0400A1AD043
S1130D08052818D1208940F0010204F12A0104F1D0
S1130D18080001F0E5FF608940F0010204F1DE01FA
S1130D2804F10A0001F0DCFF782204F5907104F163
S1130D38800002F04EF803F0F0FD052808BF4AF0E1
S1130D48800A1AD0042818D1208940F0040204F13A
S1130D582A0104F1080001F0C3FF608940F004028D
S1130D6804F1DE0104F10A0001F0BAFF782204F567
S1130D78907104F1800002F02CF85FEA4A6048BFE1
S1130D885FEA0A604BD5B4F91000B0F5006048BFBB
S1130D984042B4F91410B1F5006148BF4942B4F9AE
S1130DA81820B2F5006248BF5242B4F922306528CF
S1130DB8BCBF6529652A15DAA3F1320040F69C7197
S1130DC888420CD3208940F0020204F12A0104F17C
S1130DD8080001F085FF608940F002020EE04AF045
S1130DE8100A18E0208940F0010204F12A0104F1F4
S1130DF8080001F075FF608940F0010204F1DE018A
S1130E0804F10A0001F06CFF782204F5907104F1F2
S1130E18800001F0DEFF4FF63F7000EA0A0A5246EE
S1130E2804F12C0104F10C0001F05AFF04E02078CD
S1130E38042808BF03F012FC2078052813D1208960
S1130E4830B9A089000703D4A08940F002000EE05D
S1130E58A0894FF6FD710840A081A089C043A085F0
S1130E6803F04EFB07E04FF6FD71A0890840A0810E
S1130E78A089C043A0852078032805D100264FF017
S1130E880008374640F619394B463AB231B20FFAE0
S1130E9888F002F083F8E079401CE071C00744D47C
S1130EA82078032841D02078052818BF00200CD1C9
S1130EB8DFF8B80401690268036A01208B42BCBFE9
S1130EC80B4602209342B8BF03202084208CC043E1
S1130ED8A4F84000208C012810D018D3032816D178
S1130EE8DFF8840402684FF6E0710A4042F0080211
S1130EF802602868084040F0090015E0DFF868043B
S1130F0802684FF6E0710A4042F0090207E0DFF890
S1130F18580402684FF6E0710A4042F00802026081
S1130F282868084040F00C002860BDE8F04703F04A
S1130F3885BDF0B581B0002001F076FDDFF82044CE
S1130F48611C204601F0D1FD04F12A0104F10800D6
S1130F5801F0D3FE04F1DE0104F10A0001F0CDFE34
S1130F6804F12C0104F10C0001F0C7FE04F12E0178
S1130F7804F10E0001F0C1FE04F1320104F1120083
S1130F8801F0BBFE04F1360104F1160001F0B5FED0
S1130F9804F1300104F1100001F0AFFE04F1340152
S1130FA804F1140001F0A9FE04F1380104F1180059
S1130FB801F0A3FE04F1420104F1220001F09DFEB8
S1130FC804F13A0104F11A0001F097FE04F13C011E
S1130FD804F11C0001F091FE04F13E0104F11E002D
S1130FE801F08BFE04F5827104F1640001F0FDFE4A
S1130FF804F5847104F1680001F0F7FE04F58671C4
S113100804F16C0001F0F1FE04F5887104F170003C
S113101801F0EBFE04F58A7104F1740001F0E5FEB9
S113102804F58C7104F1780001F0DFFE04F58E718B
S113103804F17C0001F0D9FE207805285BD1B4F9CD
S11310481A0040F6F675401FA84218D3208940F0CC
S1131058010204F12A0104F1080001F041FE60894B
S113106840F0010204F1DE0104F10A0001F038FE47
S1131078782204F5907104F1800001F0AAFEB4F915
S11310881C00401FA84218D3208940F0010204F133
S11310982A0104F1080001F023FE608940F00102EE
S11310A804F1DE0104F10A0001F01AFE782204F5C5
S11310B8907104F1800001F08CFEB4F91E00401F09
S11310C8A84218D3208940F0010204F12A0104F14E
S11310D8080001F005FE608940F0010204F1DE0118
S11310E804F10A0001F0FCFD782204F5907104F182
S11310F8800001F06EFEB4F91A00B4F91010421A17
S113110892B204F12E0104F10E0001F0E9FDB4F9E4
S11311181C00B4F91410421A92B204F1320104F119
S1131128120001F0DDFDB4F91E00B4F91810421ADA
S113113892B204F1360104F1160001F0D1FDB4F9BC
S11311480E00216F10FB00F001EBE012B4F912005D
S1131158616F10FB00F001EBE015B4F91600A16F04
S113116810FB00F001EBE016E06F471C40F6A2709C
S113117887421BDB92FBF7F204F5827104F16400E9
S113118801F027FE95FBF7F204F5847104F1680079
S113119801F01FFE96FBF7F204F5867104F16C006A
S11311A801F017FE002200271546164604F588713B
S11311B804F1700001F00DFE2A4604F58A7104F169
S11311C8740001F006FE324604F58C7104F17800CF
S11311D801F0FFFD3A4604F58E7104F17C0001F03C
S11311E8F8FD04F1C40104F19C0001F0FEFD04F1D2
S11311F8C80104F1A00001F0F8FD04F1CC0104F1E8
S1131208A40001F0F2FD04F5987104F1A80001F0BE
S1131218ECFD04F1C00104F1980001F0E6FD04F1CD
S1131228BC0104F1940001F0E0FD04F1B80104F1FB
S1131238900001F0DAFDA11DE01C01F056FC611DCF
S1131248A01C01F052FC04F1DC01201D01F04DFC4E
S1131258D4F89C00B0F1804F06D2421C04F1C401BA
S113126804F19C0001F0B5FD41480568D4F8A400D8
S1131278414205EBE1010E18324604F1CC0104F1B8
S1131288A40001F0A6FDD4F8A800414205EB6101D1
S11312980D18F6102A4604F5987104F1A80001F017
S11312A898FDD4F8AC00F028B8BF6E10D4F89800B4
S11312B8B0423EDAD4F8942004F1C00104F1980055
S11312C801F087FDE078012842D10022A11DE01C2D
S11312D801F0FEFBD4F8A000421C04F1C80104F19B
S11312E8A00001F076FDD4F8A000A17888422FD39D
S11312F82079012808D1D4F89C2004F1D00104F104
S1131308AC0001F066FD05E0012204F1DC01201DBA
S113131801F0DEFB002204F1C80104F1A00001F091
S113132858FD002204F1C40104F19C0001F051FDB0
S11313380EE086420CDAD4F8902004F1C00104F1DE
S1131348980001F046FD0122A11DE01C01F0C0FB3C
S113135803F042F901B0BDE8F040012001F064BB9C
S1131368A40C002000B00340007002401880034021
S11313783880034000B581B0032001F055FB01B06B
S11313885DF804EB042001F04FBB000030B581B0D8
S1131398002001F007FBDFF8204E611C204601F015
S11313A8A4FB04F12A0104F1080001F0A6FC04F1ED
S11313B8DE0104F10A0001F0A0FC04F12C0104F19F
S11313C80C0001F09AFC04F5827104F1640001F048
S11313D80CFD04F5847104F1680001F006FD04F5C0
S11313E8867104F16C0001F000FD04F1FC0104F1C4
S11313F85C0001F0FAFC04F12E0104F10E0001F086
S11314087CFC04F1320104F1120001F076FC04F1D1
S1131418360104F1160001F070FC04F1E20104F154
S1131428260001F06AFC04F5807104F1600001F003
S1131438DCFC04F5907104F1800001F0D6FC04F1A1
S1131448F40104F1540001F0D0FC04F1F80104F1B2
S1131458580001F0CAFC04F1D80104F1B00001F00D
S1131468C4FC04F1D40104F1B40001F0BEFC2078FA
S1131478032818BF062836D004F1420104F12200DB
S113148801F03BFCB4F9220040F2035188420CDA23
S1131498208940F4007204F12A0104F1080001F0E3
S11314A81FFC608940F400720FE040F666718842C0
S11314B819DB208940F4806204F12A0104F1080050
S11314C801F00EFC608940F4806204F1DE0104F14D
S11314D80A0001F005FC4FF4FA6204F5907104F176
S11314E8800001F076FCB4F90E00B4F9121010FB78
S11314F800F011FB0100B4F9161011FB010204F10C
S1131508FC0104F15C0001F064FC208938B1207806
S1131518022804DB0622611C204601F0D9FA20784F
S1131528052840F09180A06E2B28E06E0ADAB0F509
S1131538F37FA4BF606EB0F5F37F2BDBA08940F482
S1131548807221E02B280BDAA06EB0F5F37FA4BFDC
S1131558606EB0F5F37F1DDBA08940F4807213E060
S1131568606E2B280BDAE06EB0F5F37FA4BFA06E93
S1131578B0F5F37F0EDBA08940F4807204E0A08903
S11315884FF6FF6101EA000204F12C0104F10C009A
S113159801F0A6FBA089C0F300200028E08C22D02B
S11315A8401CE084E08CB0F57A7F20DD4FF47A703B
S11315B8E08404F12A01208940F0800204F1080043
S11315C801F08EFB608940F0800204F1DE0104F131
S11315D80A0001F085FBC82204F5907104F180002B
S11315E801F0F7FB03E010B1E08C401EE08404F145
S11315F8E201E28C04F1260001F072FB04F1D0014F
S113160804F1AC0001F0F1FBA08902F0CBFF012842
S113161814D1208940F0400204F12A0104F10800A1
S113162801F05EFB608940F0400204F1DE0104F140
S11316380A0001F055FB782200F0B0BDA08900072C
S113164840F1B28500F0A3BD042840F0C28002F046
S113165857FF01F053F8A0892189090748BF782268
S113166800F19C85400540F19F85A0894FF6FB71E8
S113167801EA000204F12C0104F10C0001F030FB32
S1131688A08900054CBF00224FF47A7204F1D801F6
S113169804F1B00001F09DFBA11DE01C01F025FA46
S11316A804F1B80104F1900001F09FFB04F1BC01BE
S11316B804F1940001F099FB04F1C00104F19800CD
S11316C801F093FB04F1C40104F19C0001F08DFBCB
S11316D804F1C80104F1A00001F087FB04F1D00172
S11316E804F1AC0001F081FB04F1CC0104F1A40085
S11316F801F07BFB04F1DC01201D01F0F6F902F096
S1131708FAFE00EE100AB8EE400ABDEEC00A10EE6A
S1131718100A401000EE100AB8EEC00ADFEDAC0A59
S113172860EE200A9FEDAB1A20EE010AFDEEE00AF6
S1131738BDEEC00AC4ED240A84ED250A10EE902AF1
S113174804F1B80104F1900001F043FBD4F89420AB
S113175804F1BC0104F1940001F03BFBD4F894209B
S113176804F1C00104F1980001F033FB0022A11D2B
S1131778E01C01F0ADF9002204F1C40104F19C005D
S113178801F027FB4FF0804204F1C80104F1A000E6
S113179801F01FFB4FF0804204F1D00104F1AC00CA
S11317A801F017FB002204F1CC0104F1A40001F0BC
S11317B810FB002204F5987104F1A80001F009FB5C
S11317C8002204F1DC01201D01F082F9022200F05C
S11317D8DFBC032840F0008102F092FEA089400794
S11317E81DD5A0894FF6FB7101EA000204F12C0112
S11317F804F10C0001F074FAA0894FF6EF7101EAC4
S1131808000204F12C0104F10C0001F069FA7D20B6
S113181802F0FBFB4FF4A071282002F0DEFEA08941
S1131828C00640F1BC80A0894FF6FE7101EA0002AF
S113183804F12C0104F10C0001F052FA002204F125
S1131848F80104F1580001F0C4FA002204F1F4018B
S113185804F1540001F0BDFAA11DE01C01F045F9A2
S113186804F1B80104F1900001F0BFFA04F1BC01DD
S113187804F1940001F0B9FA04F1C00104F19800EC
S113188801F0B3FA04F1C40104F19C0001F0ADFACB
S113189804F1C80104F1A00001F0A7FA04F1D00191
S11318A804F1AC0001F0A1FA04F1CC0104F1A400A4
S11318B801F09BFA04F1DC01201D01F016F902F095
S11318C81AFE00EE100AB8EE400ABDEEC00A10EE89
S11318D8100A401000EE100AB8EEC00ADFED3C0A08
S11318E860EE200A9FED3B1A20EE010AFDEEE00AA5
S11318F8BDEEC00AC4ED240A84ED250A10EE902A30
S113190804F1B80104F1900001F063FAD4F89420CA
S113191804F1BC0104F1940001F05BFAD4F89420BA
S113192804F1C00104F1980001F053FA0022A11D4A
S1131938E01C01F0CDF8002204F1C40104F19C007C
S113194801F047FA4FF0804204F1C80104F1A00005
S113195801F03FFA4FF0804204F1D00104F1AC00E9
S113196801F037FA002204F1CC0104F1A40001F0DB
S113197830FA002204F5987104F1A80001F029FA5C
S1131988002204F1DC01201D01F0A2F8A08900075F
S11319984CBF04220522611C204601F099F802F08C
S11319A801FE012840F00084208940F0400204F13F
S11319B82A0104F1080001F093F9608940F040021B
S11319C804F1DE0104F10A0001F08AF97822E5E362
S11319D86666863F3333733F022840F00B8102F07A
S11319E8A1FD0020EFF3108572B6B4F90E10B4F916
S11319F82E20D24389B292B2914218BF0120B4F981
S1131A081210B4F93220D24389B292B2914218BF6B
S1131A18401CB4F91610B4F93620D24389B292B2F4
S1131A28914218BF401CB4F91010B4F93020D243C5
S1131A3889B292B2914218BF401CB4F91410B4F997
S1131A483420D24389B292B2914218BF401CB4F9EF
S1131A581810B4F93820D24389B292B2914218BF0F
S1131A68401CB4F92210B4F94220D24389B292B28C
S1131A78914218BF401C20B101220021012003F02B
S1131A886FF885F3108804F1E80104F1480001F0C7
S1131A98ACF904F1EC0104F14C0001F0A6F904F1ED
S1131AA8F00104F1500001F0A0F9A06CB4F90E1093
S1131AB8B4F910205118A1EB204101EB810200EB8D
S1131AC8C2152A4604F1E80104F1480001F081F93D
S1131AD82A1492B204F1300104F1100001F000F963
S1131AE8E06CB4F91210B4F914205118A1EB204198
S1131AF801EB810200EBC2152A4604F1EC0104F162
S1131B084C0001F066F92A1492B204F1340104F18C
S1131B18140001F0E5F8206DB4F91610B4F9182092
S1131B285118A1EB204101EB810200EBC2152A46B2
S1131B3804F1F00104F1500001F04BF92A1492B2B7
S1131B4804F1380104F1180001F0CAF8A08940072B
S1131B5821D5A0894FF2FF7101EA000204F12C019A
S1131B6804F10C0001F0BCF8A0894FF6FF3101EA3A
S1131B78000204F12C0104F10C0001F0B1F8032275
S1131B88611C204600F0A4FF002204F1DE0104F1E8
S1131B980A0001F0A5F8A089A189400540F1048351
S1131BA8C80700F10183D4F8B00028B1421E04F13B
S1131BB8D80104F1B000F5E2A0894FF6FF3101EA3B
S1131BC8000204F12C0104F10C0001F089F84FF42F
S1131BD8C87204F1D80104F1B00001F0FAF8002247
S1131BE804F1D40104F1B40001F0F3F802F088FC24
S1131BF80722CDE2072840F08F81D4F8B0000028EE
S1131C0800F0D880421E04F1D80104F1B00001F0BC
S1131C18E0F8D4F8B450B5F57A7F07DA32352A46B5
S1131C2804F1D40104F1B40001F0D3F8C5F58042FD
S1131C3805F5804092B24FF4804180B202F080FCF6
S1131C48B4F90E00B4F91210B4F9162010F1190FF2
S1131C5880F2AA8201F13100632880F0A5821A2A51
S1131C68C0F2A282A08940F0010204F12C0104F11F
S1131C780C0001F035F8A11DE01C00F036FF04F15A
S1131C88B80104F1900001F0B0F804F1BC0104F1CA
S1131C98940001F0AAF804F1C00104F1980001F0DD
S1131CA8A4F804F1C40104F19C0001F09EF804F1C5
S1131CB8C80104F1A00001F098F804F1D00104F17E
S1131CC8AC0001F092F804F1CC0104F1A40001F095
S1131CD88CF804F1DC01201D00F007FF02F00BFC76
S1131CE800EE100AB8EE400ABDEEC00A10EE100A63
S1131CF8401000EE100AB8EEC00ADFED5A0A60EE92
S1131D08200A9FED2B1A20EE010AFDEEE00ABDEE33
S1131D18C00AC4ED240A84ED250A10EE902A04F1C1
S1131D28B80104F1900001F054F8D4F8942004F1B7
S1131D38BC0104F1940001F04CF8D4F8942004F1A7
S1131D48C00104F1980001F044F80022A11DE01C30
S1131D5800F0BEFE002204F1C40104F19C0001F06D
S1131D6838F84FF0804204F1C80104F1A00001F0F2
S1131D7830F84FF0804204F1D00104F1AC0001F0D6
S1131D8828F8002204F1CC0104F1A40001F021F8A0
S1131D98002204F5987104F1A80001F01AF8002251
S1131DA804F1DC01201D00F093FE0222F0E100BFE3
S1131DB83333733F208940F0080204F12A0104F107
S1131DC8080000F08DFF608940F0080204F1DE018C
S1131DD804F10A0000F084FFA11DE01C00F085FE58
S1131DE804F1B80104F1900000F0FFFF04F1BC0114
S1131DF804F1940000F0F9FF04F1C00104F1980023
S1131E0800F0F3FF04F1C40104F19C0000F0EDFFBD
S1131E1804F1C80104F1A00000F0E7FF04F1D001C7
S1131E2804F1AC0000F0E1FF04F1CC0104F1A400DA
S1131E3800F0DBFF04F1DC01201D00F056FE02F087
S1131E485AFB00EE100AB8EE400ABDEEC00A10EEC6
S1131E58100A401000EE100AB8EEC00ADFED010ABD
S1131E6802E000BF6666863F60EE200A9FEDD11A45
S1131E7820EE010AFDEEE00ABDEEC00AC4ED240A14
S1131E8884ED250A10EE902A04F1B80104F19000BB
S1131E9800F09FFFD4F8942004F1BC0104F19400ED
S1131EA800F097FFD4F8942004F1C00104F19800DD
S1131EB800F08FFF0022A11DE01C00F009FE0022A3
S1131EC804F1C40104F19C0000F083FF4FF0804248
S1131ED804F1C80104F1A00000F07BFF4FF0804238
S1131EE804F1D00104F1AC0000F073FF002204F106
S1131EF8CC0104F1A40000F06CFF002204F59871F1
S1131F0804F1A80000F065FF002204F1DC01201DA3
S1131F1800F0DEFD782241E1012840F0EA8000204B
S1131F28EFF3108572B6B4F90E10B4F92E20D2432B
S1131F3889B292B2914218BF0120B4F91210B4F9CF
S1131F483220D24389B292B2914218BF401CB4F9EC
S1131F581610B4F93620D24389B292B2914218BF0E
S1131F68401CB4F91010B4F93020D24389B292B2AB
S1131F78914218BF401CB4F91410B4F93420D24368
S1131F8889B292B2914218BF401CB4F91810B4F93E
S1131F983820D24389B292B2914218BF401CB4F996
S1131FA82210B4F94220D24389B292B2914218BFA6
S1131FB8401C20B101220021012002F0D1FD85F34B
S1131FC8108804F1E80104F1480000F00EFF04F160
S1131FD8EC0104F14C0000F008FF04F1F00104F1F5
S1131FE8500000F002FFA06CB4F90E10B4F91020F0
S1131FF85118A1EB204101EB810200EBC2152A46DE
S113200804F1E80104F1480000F0E3FE2A1492B256
S113201804F1300104F1100000F062FEE06CB4F940
S11320281210B4F914205118A1EB204101EB8102DC
S113203800EBC2152A4604F1EC0104F14C0000F04F
S1132048C8FE2A1492B204F1340104F1140000F019
S113205847FE206DB4F91610B4F918205118A1EBF5
S1132068204101EB810200EBC2152A4604F1F0017C
S113207804F1500000F0ADFE2A1492B204F13801C4
S113208804F1180000F02CFE04F1E00104F124002E
S113209800F033FEB4F92400C82806DA421C92B2D0
S11320A804F1E00104F124001DE0E06D216E0A282A
S11320B81BD24D1C2A4604F5807104F1600000F01F
S11320C888FE062D11D3002204F5807104F1600006
S11320D800F07FFEA0894FF6DF7101EA000204F1E7
S11320E82C0104F10C0000F0FBFDA08980065BD4F0
S11320F84DE0062858D12089C0F38010B8B920894A
S1132108C0F3402080B104F1420104F1220000F040
S1132118F4FDB4F9220040F66671884204DA40F20C
S11321280351884205DA02E002F0EAF901E002F01C
S1132138F9F92089C0F30020B0BBD4F8800060BB53
S1132148002204F1E20104F1260000F0C9FD002296
S113215804F12A0104F1080000F0C2FDA0894FF639
S1132168FE7101EA000204F12C0104F10C0000F0F4
S1132178B7FD002204F1F80104F1580000F029FE2B
S1132188002204F1F40104F1540000F022FE0422B8
S1132198611C204600F09CFC06E0421E04F5907188
S11321A804F1800000F015FE01B0BDE830400120C4
S11321B800F0F8BB3333733FA40C002010B506209D
S11321C800F0F0FBDFF81C47611C204600F08DFC92
S11321D82078A1890228C0F28F80C1F3402000280A
S11321E800F08A80606C32224FF6FF71801C02F086
S11321F80BFD616C0988884204D00022002101206B
S113220802F0AEFC04F12A0104F1080000F075FDA7
S113221804F1DE0104F10A0000F06FFD04F12C0161
S113222804F10C0000F069FD04F1E40104F1280054
S113223800F063FD04F5927104F1840000F039FEA6
S113224804F5827104F1640000F0CFFD04F5847193
S113225804F1680000F0C9FD04F5867104F16C000E
S113226800F0C3FD208D401C2085208D282803DB29
S113227800F0A0F90020208594ED210A2189C1F3FA
S11322880021BDEEC00A002910EE100A616C00B2EC
S11322980DD0B1F9041088421FDA20894FF6FF6186
S11322A801EA000204F12A0104F1080013E0B1F97B
S11322B80610814211DA208940F4807204F12A015F
S11322C804F1080000F00CFD608940F4807204F108
S11322D8DE0104F10A0000F003FD228D04F1E4019B
S11322E804F1280000F0FCFC94ED210A04F5927135
S11322F804F1840000F0CAFDBDE81040072000F096
S113230851BB10B5DFF8DC4504F12A0104F10800DB
S113231800F0F3FC2189012001B9002010BD30B57B
S11323280446DFF8C05581B005F12A0105F108001B
S113233800F0E3FC2889E04000F0010001B030BD62
S113234830B50446DFF89C5581B005F1DE0105F18E
S11323580A0000F0D2FC69890120E140C90758BF8E
S1132368002001B030BD30B50446DFF8785581B09F
S113237805F12C0105F10C0000F0BFFCA889E04030
S113238800F0010001B030BD10B5DFF85845611CFC
S1132398204600F0AAFB04F12C0104F10C0000F023
S11323A8A4FB2078A189022806D10906880E00F02A
S11323B8010080F0010010BD002010BD10B5DFF849
S11323C82445611C204600F090FB04F12C0104F123
S11323D80C0000F092FCA0892178022918D1C0F3DE
S11323E84020A8B1A08940F0040204F12C0104F1B2
S11323F80C0000F075FCA0894FF6F77101EA0002A1
S113240804F12C0104F10C0000F06AFC012010BD59
S1132418002010BD30B5DFF8CC4481B0611C2046E3
S113242800F063FB04F12C0104F10C0000F065FCDE
S11324382078052818BF032810D1EFF3108572B649
S1132448A08940F0080204F12C0104F10C0000F00A
S113245847FC85F31088012001B030BD002001B08D
S113246830BD10B5DFF87C4404F12C0104F10C00F4
S113247800F043FCA08940F4006204F12C0104F14B
S11324880C0000F02DFCBDE81040C3E7F0B504468D
S11324980D46DFF8507481B0164607F12C0107F198
S11324A80C0000F02AFCB889800707D5B2B2A9B29B
S11324B8A0B201B0BDE8F04002F042B801B0F0BDEE
S11324C830B50446DFF81C5481B005F12C0105F140
S11324D80C0000F012FCA889C0F3400565B1012C7A
S11324E805D1012502F00CF8284601B030BD022CB4
S11324F804BF012502F016F8284601B030BD0000DB
S113250870B50546DFF8DC43002604F12C0104F11C
S11325180C0000F0F2FB002D4AD0656432224FF61D
S1132528FF71A81C02F070FB616C0988884211D005
S113253800221146012002F013FBA0894FF6FF5137
S113254801EA000204F12C0104F10C0000F0C8FBBC
S1132558304670BDA08940F4007204F12C0104F1E6
S11325680C0000F0BDFB002204F1E40104F1280092
S113257800F0B6FB606CB0F9020000EE100AB8EE89
S1132588C00A04F5927104F1840000F07FFC9FED09
S11325985A0A04F5947104F18C0000F077FC9FED5D
S11325A8560A04F5967104F1880000F06FFC0126C0
S11325B8304670BD10B5CB4C2DED048B606CB0F972
S11325C80800D4ED210A00EE100AB8EEC00A70EE35
S11325D8C08A94ED190AD4ED1A0AB8EEC00AF8EEC6
S11325E8E00A30EE200AD4ED1B0AF8EEE00A30EED9
S11325F8200ADFEDB90A20EE200ADFEDB80A20EE42
S1132608208A611DA01C00F070FA04F1D00104F1C5
S1132618AC0000F0EAFBA07800EE100AB8EE400A1D
S1132628DFEDAF0A20EE200AD4ED2B0A606CF8EE39
S1132638600AB7EE001A70EE810A80EE209A90EDD7
S1132648050A90ED061A20EE090A69EE090A00EE59
S1132658810AD0ED070AB0F90A10B0EE081A60EE44
S1132668810A90ED081AF7EE001A41EE281A01EED5
S1132678101AB8EEC11A60EEA10AB4EE491A60EE57
S1132688880AF1EE10FA4FBF90ED0B1AD0ED0A1A32
S113269890ED091A01EEA81A30EE800A01EE680AD4
S11326A8D0ED030A20EE200AD0ED040A94ED211A95
S11326B800EE201A84ED211A04F5947104F18C00BB
S11326C800F0F7FB04F5967104F1880000F0F1FBC3
S11326D8B0EE480A04F5947104F18C0000F0D6FBBE
S11326E8B0EE490A04F5967104F18800BDEC048B38
S11326F8BDE8104000F0CABB0000000030B581B04E
S11327080020EFF3108572B6764CB4F90E10B4F9C4
S11327182E20D24389B292B2914218BF0120B4F953
S11327281210B4F93220D24389B292B2914218BF3E
S1132738401CB4F91610B4F93620D24389B292B2C7
S1132748914218BF401CB4F91010B4F93020D24398
S113275889B292B2914218BF401CB4F91410B4F96A
S11327683420D24389B292B2914218BF401CB4F9C2
S11327781810B4F93820D24389B292B2914218BFE2
S1132788401CB4F92210B4F94220D24389B292B25F
S1132798914218BF401C20B101220021012002F0FF
S11327A8DFF985F31088A06D00216FF001028942DA
S11327B809DC01DB904206D2421C04F1F80104F161
S11327C8580000F006FBE06D616D42F21072904211
S11327D838BFB1F5A07F33D201F0E4FE01281FD140
S11327E8208940F0400204F12A0104F1080000F0B5
S11327F877FA608940F0400204F1DE0104F10A002E
S113280800F06EFA002204F1F40104F1540000F01F
S1132818E0FA42F6E06204F5907104F180000DE0FC
S1132828606D00216FF00102894209DC01DB9042EE
S113283806D2421C04F1F40104F1540000F0C9FA70
S1132848606DB0F5A07F24D34FF4A071282001F067
S1132858C4FE02F062F8042810D1208940F0040272
S113286804F12A0104F1080000F03AFA608940F002
S1132878040204F1DE0104F10A0008E0052808D185
S1132888A08940F4806204F12C0104F10C0000F0EA
S113289827FA2089A16DB1F5484F05D2C10703D4A1
S11328A8810701D4400714D5208940F0080204F1B7
S11328B82A0104F1080000F013FA608940F00802C4
S11328C804F1DE0104F10A0001B0BDE8304000F073
S11328D807BA01B030BD0000F4D4B3410000003899
S11328E800007A45A40C002030B5704C81B0FF2557
S11328F8FF220821204602F01BFB002020722A46F2
S1132908122104F10C0002F013FB002060722A4625
S11329180B2104F1200002F00BFB0020A0722A46D0
S1132928042104F12C0002F003FB0020E07201B042
S113293830BD5E490A7A082A03DA5054501C0872DA
S1132948704700220321122002F00AB910B5574C2F
S1132958207A082802D00022022103E0207828B136
S113296800220121122002F0FBF813E0607801280C
S113297804BFA0780228F3D1E078032804BF2079A3
S11329880428EDD16079052801BFA0790628E079EB
S11329980728E5D1FF220821204602F0C9FA0020C1
S11329A8207210BD41494A7A122A04DA531818735E
S11329B8501C4872704700220321102002F0D0B83E
S11329C830B53A4C607A81B0122802D00022022134
S11329D80CE0002004F10C010FF2D40211F8013BC1
S11329E812F8015BAB4205D000220121102002F04D
S11329F8B7F80FE011F8013B12F8015BAB4202BFD4
S1132A0811F8013B12F8015BAB42EDD1C01CC0B216
S1132A181228E3DBFF22122104F10C0002F088FAE9
S1132A280020607201B030BD20498A7A0B2A05DA89
S1132A38531883F82000501C887270470022032121
S1132A48112002F08DB8000030B5184CA07A81B07E
S1132A580B2802D00022022110E094F8200058B973
S1132A685FF0010004F121010FF2590211F8013B52
S1132A7812F8015BAB4205D000220121112002F0BB
S1132A886FF809E011F8013B12F8015BAB42F3D18E
S1132A98801CC0B20B28E9DBFF220B2104F12000C3
S1132AA802F046FA0020A07201B030BDF4FBFF1F0B
S1132AB800010203000104050001060700010809DA
S1132AC800010000000102000100010304000100EC
S1132AD810B4EFF31084230072B60270D2B2D44358
S1132AE80C7083F3108810BC704770B582B0040072
S1132AF80D0000208DF80200EFF31080060072B676
S1132B082078C0438DF801009DF801002978884297
S1132B1853D02A0092B2210089B2012002F020F891
S1132B2801208DF8020020788DF8010001208DF82D
S1132B3800009DF80000002817D09DF800002070C0
S1132B4820789DF80010884209D02A0092B221000A
S1132B5889B2022002F004F802208DF802009DF8E0
S1132B68000040008DF80000E3E79DF801002070A4
S1132B7828788DF8010001208DF800009DF80000E8
S1132B88002817D09DF80000287028789DF80010B8
S1132B98884209D02A0092B2210089B2022001F0A9
S1132BA8DFFF03208DF802009DF8000040008DF837
S1132BB80000E3E79DF80100287086F310889DF86B
S1132BC8020076BD70B4EFF31086350072B60026A5
S1132BD834009C4206D2A65C2654A65CF64366548E
S1132BE8641CF6E785F3108870BC70472DE9F04142
S1132BF882B004000D00160000208DF80100EFF3E8
S1132C081080804672B600200700B74262D2385D51
S1132C18C0438DF802009DF80200795D884257D0C0
S1132C289DF80100002809D12A0092B2210089B236
S1132C38012001F095FF01208DF80100385D8DF821
S1132C48020001208DF800009DF80000002817D02C
S1132C589DF800003855385D9DF80010884209D069
S1132C682A0092B2210089B2022001F079FF0220E1
S1132C788DF801009DF8000040008DF80000E3E79E
S1132C889DF802003855785D8DF8020001208DF812
S1132C9800009DF80000002817D09DF80000785522
S1132CA8785D9DF80010884209D02A0092B221006C
S1132CB889B2022001F054FF03208DF801009DF829
S1132CC8000040008DF80000E3E79DF80200785505
S1132CD87F1C9AE788F310889DF80100BDE8F68107
S1132CE810B4EFF31084230072B6028092B2D44376
S1132CF80C8083F3108810BC70477CB504000D0069
S1132D0800208DF80400EFF31080060072B62088C6
S1132D18C043ADF80200BDF802002988884253D0A8
S1132D282A0092B2210089B2012001F019FF012082
S1132D388DF804002088ADF802000120ADF80000E9
S1132D48BDF80000002817D0BDF8000020802088B6
S1132D58BDF80010884209D02A0092B2210089B235
S1132D68022001F0FDFE02208DF80400BDF80000E9
S1132D784000ADF80000E3E7BDF802002080288891
S1132D88ADF802000120ADF80000BDF800000028ED
S1132D9817D0BDF8000028802888BDF800108842A4
S1132DA809D02A0092B2210089B2022001F0D8FE8B
S1132DB803208DF80400BDF800004000ADF80000C1
S1132DC8E3E7BDF80200288086F310889DF8040024
S1132DD876BD10B4EFF31084230072B60260D443B6
S1132DE80C6083F3108810BC70472DE9F843040085
S1132DF80D0000200700EFF31080814672B62068AA
S1132E08C0430600286886423AD02A0092B22100BC
S1132E1889B2012001F0A4FE012007002068060001
S1132E2801208046B8F1000F10D0C4F80080206853
S1132E38404508D02A0092B2210089B2022001F04C
S1132E488FFE022007005FEA4808EBE7266028683F
S1132E58060001208046B8F1000F10D0C5F80080A4
S1132E682868404508D02A0092B2210089B202207D
S1132E7801F076FE032007005FEA4808EBE72E60BE
S1132E8889F310883800C0B2BDE8F28381B08DEDB3
S1132E98000A009BDB430093EFF310831A0072B619
S1132EA810EE103A0360009B0B6082F3108801B0A7
S1132EB870472DE9F04182B004000D00002006009F
S1132EC8EFF31080804672B6206800900098C043E3
S1132ED8009000982968884236D02A0092B22100CE
S1132EE889B2012001F03CFE012006002068009010
S1132EF801200700002F0ED027602068B84208D0B0
S1132F082A0092B2210089B2022001F029FE02208F
S1132F1806007F00EEE700982060286800900120F2
S1132F280700002F0ED02F602868B84208D02A0066
S1132F3892B2210089B2022001F012FE0320060099
S1132F487F00EEE70098286088F310883000C0B24C
S1132F58BDE8F68100B581B002F008F802F0A4F8E3
S1132F6802F0C0FDDFF8AC0C002141608160C16053
S1132F78016002F01FFE03F035FB41F28C01DFF81B
S1132F88A80CC16001B000210161416181618180A7
S1132F98022141700021017000BD000070B5DFF806
S1132FA8884CA5784042000100EE900A6E1C9FED03
S1132FB8550AF8EEE00ADFF85C5C60EE800A9FEDE3
S1132FC8521A60EE810A4842C5ED010A000100EE7A
S1132FD8900AF8EEE00A60EE800A60EE810A504238
S1132FE8C5ED020A000100EE900AF8EEE00A20EEB0
S1132FF8800ADFED450A20EE200A85ED030AD80091
S113300800EE100AB8EEC00ADFED400A20EE200AEE
S1133018DFED3D0A6078E168A67020EE200A85EDB0
S1133028000A072826DB6A6822F0004200EE102A0C
S1133038AA6822F0004200EE902AEA68DFED341A0A
S113304822F00042B4EE610A01EE102AF1EE10FA01
S1133058BFBFF4EE610AF1EE10FAB4EE611AF1EEB4
S113306810FA07DB226940F201431A43226141F452
S1133078806101E021F48061E16029B3032805DA65
S1133088022840F00181C1F34000C8B106206070F5
S1133098606940F001006061FFF7BCF9FFF774F95B
S11330A801280DD10020A08003F09CFAE06838B90B
S11330B8606920F4FD70606103F04CF903206070CE
S11330C8BDE8704001F06ABF08284DD103F0E4FA66
S11330D8DFF8E40BD0ED3A0A30EE200A85ED040A55
S11330E801F0FCFF6069C0F3800109B10921617036
S11330F8C10737D4C0F3400060B10220FFF7E0F9FC
S1133108DEE700BF5A640341000000386666DF4307
S11331189A99014195F8490095F8481050FA81F2B6
S11331281AB1F9B90028CBD0E7E79FEDB00AD5ED7D
S11331380E0A60EE800AFDEEE00A10EE902AD5ED44
S11331480D0A60EE800AFDEEE00A10EE901AD5ED45
S11331580C0A20EE800ABDEEC00A10EE100AFFF732
S113316895F9ADE70120C9E707283AD16069C10795
S11331782CD4C0F3400008B1022028E095F8490097
S113318895F8481050FA81F21AB1F9B908B3022037
S11331981DE09FED960AD5ED0E0A60EE800AFDEE5D
S11331A8E00A10EE902AD5ED0D0A60EE800AFDEED5
S11331B8E00A10EE901AD5ED0C0A20EE800ABDEE56
S11331C8C00A10EE100AFFF761F902E00120FFF7C8
S11331D877F96069C0F3800000280CBF0820052037
S11331E86DE7042826D1FFF7E9F86069C0F3800089
S11331F808B1052063E70120FFF7B5F801287FF43B
S11332085FAF606910F0F00F18BF0B200CD1C0F34A
S1133218C00119B103F0FAF9072005E0C0F3002052
S113322818B103F01BFB01206070606920F00800EE
S1133238606145E709281BD1F00744BF0520607089
S11332486069C1078ED4C0F3400000287FF455AFED
S113325895F8490095F8481050FA81F2002A3FF48D
S113326864AF00297FF47EAF00283FF429AF44E718
S1133278052809D1FFF7CEF8FFF786F801287FF46F
S11332881FAF03F0AFF917E702280AD100297FF42A
S113329817AFFFF779F801287FF412AF00202061F7
S11332A80AE703280DD1002028616069C008C0001E
S11332B8606110F4FC7F3FF403AF0020A080042079
S11332C8FDE60A283FF4FCAE0B283DD16069C1072E
S11332D82CD4C0F3400008B1022028E095F8490036
S11332E895F8481050FA81F21AB1F9B908B30220D6
S11332F81DE09FED3E0AD5ED0E0A60EE800AFDEE54
S1133308E00A10EE902AD5ED0D0A60EE800AFDEE73
S1133318E00A10EE901AD5ED0C0A20EE800ABDEEF4
S1133328C00A10EE100AFFF7B1F802E00120FFF717
S1133338C7F86069C0F3800100293FF4C1AE20F0EA
S1133348F00060610520BAE601287FF4A5AEF00715
S113335848BF03F0B9FA6069C1072CD4C0F3400030
S113336808B1022028E095F8490095F8481050FA69
S113337881F21AB1F9B908B302201DE09FED1B0AC6
S1133388D5ED0E0A60EE800AFDEEE00A10EE902AF2
S1133398D5ED0D0A60EE800AFDEEE00A10EE901AF3
S11333A8D5ED0C0A20EE800ABDEEC00A10EE100A14
S11333B8FFF76CF802E00120FFF782F803F0CAFB7C
S11333C8012805D06069C0F3800000283FF478AE76
S11333D8E06800287FF474AE2061606920F480708E
S11333E8606103F06BFA052069E6000000000047FD
S11333F800B581B001F0D4FD01B05DF804EB02F032
S1133408AFBD02F03EBE30B581B002F0C9FBDFF8B3
S11334181848E16840B9206940F4800040F0010090
S1133428206141F4800001E021F48000E06006207E
S1133438FEF775FFE16838B1206940F601021043D0
S1133448206141F4006001E021F40060E060E0786C
S113345810B1401EE070E2E03C20E070FEF751FF3E
S1133468050067D00020FEF75AFF40B140F2011171
S1133478206908432061E06840F48070E06001201E
S1133488FEF74DFF40B140F2012120690843206155
S1133498E06840F40070E0600220FEF740FF48B1A5
S11334A8206940F4002040F001002061E06840F405
S11334B80020E0600720FEF732FF48B1206940F49D
S11334C8005040F001002061E06840F40050E060E2
S11334D80920FEF724FF38B1206940F00900206173
S11334E8E06840F00800E0600A20FEF718FF38B1F1
S11334F8206940F005002061E06840F00400E060C5
S11335080320FEF70CFF48B1206940F4805040F0D6
S113351801002061E06840F48050E0600820FEF774
S1133528FEFEF0B1206940F081002061E06840F0BF
S1133538800015E0E068DFF888170840E06006209E
S113354802F072FF48B1206940F4005040F00100D5
S11335582061E06840F4005002E0E06820F4005084
S1133568E0606078082818BF07281CD002280BD10F
S1133578A088B0F5507F13DD206940F00300206176
S1133588E06840F002001CE0062804D1E068DFF897
S11335983417084015E0042814D1A088212807DA34
S11335A8401CA0800EE00120FEF7DDFE284309D16F
S11335B8206940F4802040F001002061E06840F474
S11335C88020E060607807280ADB207E800607D424
S11335D8206940F003002061E06840F00200E060E8
S11335E8042002F021FFE16830B1206940F0210095
S11335F8206141F0200001E021F02000E060052076
S113360802F012FF38B1206940F041002061E068FF
S113361840F0400002E0E06820F04000E06061789B
S1133628A069032903D1052161F3440014E020F0C3
S11336380A0008290ED140F01000A06103F0D0F868
S11336480328A1690CBF41F0040021F004004008DC
S1133658400001E020F00400A0610920FEF783FE89
S1133668DFF86426A169127802F0010210182278A2
S11336781018C0B203280CBF41F0200021F020002C
S1133688A06101B0BDE8304002F030BD00B581B0A2
S113369801F088FC01F03EFD02F03AFA01B05DF851
S11336A804EB02F0BBBDF0B503000846114681B037
S11336B84FF0FF3243D1DFF870359C69C4F34014EE
S11336C8C4B35C69C4F380057DBB00284CBF454284
S11336D805469E6837682DB2AF42A4BF7768BD42DD
S11336E81EDB00294CBF4D420D46B7682DB2AF42D0
S11336F8A4BF3669B5420EDB5D78032D03D144F0CF
S113370808025A6101E0082D1BD102F083FF002250
S1133718104601B0F0BD6FF00202104601B0F0BDD2
S11337286FF00102104601B0F0BD6FF005021046BB
S113373801B0F0BD6FF00402104601B0F0BD6FF0A7
S11337480602104601B0F0BD0000000030B51C466A
S113375881B04FF0FF33002871D1DFF8CC54A86949
S1133768C0F34010002865D06869C0F380000028C1
S11337785BD16878032818BF0B2862D1002A48BF98
S11337885242DFF890044261220048BF52428261EB
S11337980329049A059B3FD8DFE801F00210202E84
S11337A8C26100210162032002F098FE686940F0BA
S11337B8100068610023184601B030BDC2611900C9
S11337C848BF49420162042002F088FE686940F05B
S11337D8200068610023184601B030BD0021C26191
S11337E80162052002F07AFE686940F040006861D1
S11337F80023184601B030BDC261190048BF4942D0
S11338080162062002F06AFE686940F0800068617F
S11338180023184601B030BD002141618161C161B6
S113382801620023184601B030BD6FF00503184645
S113383801B030BD6FF00403184601B030BD6FF01D
S11338480603184601B030BD30B581B00C460028D7
S11338583AD1DFF8D4536869A96920F0080068618F
S1133868C1F3401171B3C0F3800068BB68780828BD
S11338781CBF0728042819D1002C48BF64420CB97E
S1133888002006E0A868C068A042BABF0446012028
S1133898022002F023FE686940F0040068612146B2
S11338A8002002F0B7FE002001B030BD0B280BD178
S11338B8072002F04DFE686940F00400686101B019
S11338C8002030BDFEF7CDFD002001B030BD000062
S11338D80022002840F0A380DFF84C034378032B30
S11338E8C0F29D80162900F29980DFE801F00C6788
S11338F813191F2B31437379494F55375B613D25A4
S11339086D7F858B91000069421E9241D243D20F8C
S1133918104670470069800800F00102104670479D
S11339280069C00800F001021046704700690009E8
S113393800F00102104670470069400C00F00102D3
S1133948104670470069400900F0010210467047AC
S11339580069800900F00102104670470069400BB5
S113396800F00102104670470069000C00F00102E3
S1133978104670470069C00900F0010210467047FC
S11339880069800A00F00102104670470069C00A05
S113399800F00102104670470069000B00F00102B4
S11339A8104670470069800B00F00102104670470A
S11339B80069C00B00F00102104670470069400816
S11339C800F00102104670470069800C00F0010203
S11339D8104670470069000A00F00102104670475B
S11339E80069400A00F00102104670470069C00CE3
S11339F800F00102104670470069000D00F0010252
S1133A08104670470069400D00F0010210467047E7
S1133A180069800D00F0010210467047012210462B
S1133A287047002120B980484278032AA8BF016959
S1133A38084670470022E0B97B484378032B18DB1B
S1133A48052916D8DFE801F00305080B0E11007EDE
S1133A580DE0806940080AE08069800807E0806911
S1133A68C00804E08069000901E08069400900F0A9
S1133A78010210467047002120B96B484278032A96
S1133A88A8BF81690846704700B581B04FF000426D
S1133A98002840F08580182900F28280DFE801F0D0
S1133AA80D1A28803644484C8050548080588080B1
S1133AB85C606480686C70747E0002F08DFEDFEDDB
S1133AC87F0A20EE200ABDEEC00A10EE102A104626
S1133AD801B000BD4F4890ED040ADFED780A20EEEE
S1133AE8200ABDEEC00A10EE102A104601B000BD2F
S1133AF8714890ED1E0ADFED710A20EE200ABDEE32
S1133B08C00A10EE102A104601B000BD6A4890EDB4
S1133B18320ADFED6A0A20EE200ABDEEC00A10EE72
S1133B28102A104601B000BD634890ED330A2EE018
S1133B38614890ED360A2AE05F4890ED370A26E09E
S1133B485D4890ED1A0A22E05B4890ED380A1EE0C1
S1133B58304890ED000A1AE0574890ED0E0A16E036
S1133B68554890ED0F0A12E0534890ED100A0EE004
S1133B78284890ED010A0AE0264890ED020A06E07A
S1133B88244890ED030A02E04B4890ED340ABEEE57
S1133B98C80A10EE102A104601B000BD2248427827
S1133BA8104601B000BD00004FF00042002802BFDB
S1133BB81D480378012B1CD105291AD8DFE801F028
S1133BC803070B0F13178068026810467047806854
S1133BD8426810467047806882681046704780685B
S1133BE8C26810467047806802691046704780684A
S1133BF84269104670470C4A1369002130B9D068ED
S1133C080340002814BF43F001030121136108464F
S1133C187047000044F0FF1F0349C2698A6001220B
S1133C280A7002F0B4BC0000C4FCFF1F30B581B0B8
S1133C384FF0FF35F8B9254CA069C0F34010A8B17E
S1133C486069C0F3800060B96078032815D1002545
S1133C5802F004FE606940F48070606101B0284697
S1133C6830BD6FF00505284601B030BD6FF004057E
S1133C78284601B030BD6FF00605284601B030BDB6
S1133C8800B581B0A8B911488169C1F3401171B177
S1133C98417801291CBF072904290AD1416921F463
S1133CA8847141F004014161002001B000BDFEF7B8
S1133CB8D8FB002001B000BDECEEFF1FEBC918498A
S1133CC873ECF7FFFDFFFBFFE0EFFF1FC4FCFF1FD2
S1133CD80246002022B90229BCBF084602F042BFAE
S1133CE8704750F8041B61B150F8042BD30744BF44
S1133CF8A9F101039A18002342F8043B091FFAD1D9
S1133D08EFE7704710B572B600F0C2F900F020FA78
S1133D18DFF80445606A40F480006062342003F0F0
S1133D28A6F8DFF8F8044FF6FF7141600022142169
S1133D3881610164DFF8E81401618163DFF8E41448
S1133D480160016841F0010101603420002103F0A1
S1133D5862F8002020600022DFF8CC04DFF8CC44AD
S1133D68017841F010010170017841F001010170FE
S1133D782046211DFEF7ACFE0022A11DA01CFEF763
S1133D88AFFF0022611D601CFEF7A2FE62B610BDE3
S1133D98DFF89C040168090603D5016821F0800155
S1133DA801604168090603D5416821F0800141603A
S1133DB8DFF880040168090603D5016821F0800151
S1133DC801604168090605D5416821F08001416018
S1133DD8FCF7C2BE7047DFF84404016821F04001D3
S1133DE80160016841F0010101604169090602D1DD
S1133DF8C16B090617D0016821F08001016041698F
S1133E0821F47F0141614169090A09024161C16BD9
S1133E1821F47F01C163C16B090A0902C163016806
S1133E2841F0800101607047F0B5DFF8004481B0CB
S1133E38211D2046FEF759FE611D601CFEF755FE44
S1133E48A11DA01CFEF759FF2078052800F2C9809F
S1133E58DFE800F0D903144E88D9DFF8D463DFF81B
S1133E68D4531E2030607060286000225E20686091
S1133E78611D601CFEF72CFE0222BDE0DFF8B06372
S1133E88DFF8B0530C20306003220420706008204F
S1133E9828604920686030697169B4F902300843C0
S1133EA800B28342A8BF0622611D601CFEF710FE03
S1133EB8607806281AD128696969B4F90230084378
S1133EC8032200B28342A8BF0622611D601CFEF7CC
S1133ED8FFFD6078062807D11D20306070602860D7
S1133EE803225D20686087E0052285E0052283E0DF
S1133EF80C20CF4ECF4D306002220420706040F673
S1133F08FF77082028604920686030697169084093
S1133F18A15E00B2791A8842A8BF0622611D601CFE
S1133F28FEF7D6FD607806281AD128696969022245
S1133F380840A15E00B2791A8842A8BF0622611D12
S1133F48601CFEF7C5FD6078062807D11B20306089
S1133F587060286004225B2068604DE005224BE015
S1133F68052249E00C20B24EB24D306004220420F0
S1133F7870600820286049206860B4F9020031693B
S1133F8873691BB203FA81F1C90340F21E53091481
S1133F981B1A9942A2BF00F21E5088420622611DD4
S1133FA8601CFEF795FD6078062818D1B4F9020064
S1133FB829696B691BB203FA81F1C90340F21E53E4
S1133FC8042209141B1A9942A2BF00F21E50884207
S1133FD80622611D601CFEF77BFD05220CE005220C
S1133FE80AE0934E934D0C20306000220420706048
S1133FF80820286049206860211D204601B0BDE8DA
S1134008F040FEF765BD01B0F0BD30B50446874DFC
S113401881B0291D2846FEF768FDA91DA81CFEF7D6
S11340286CFE2878002818BF05280CD1A2B2A91D57
S1134038A81CFEF755FE291D284601B0BDE83040EE
S11340480122FEF745BD01B030BD30B5774C81B0D3
S1134058211D2046FEF749FD611D601CFEF745FD44
S1134068207805280ED16578022D1CBF032D042D58
S113407800D105250122611D601CFEF729FD284693
S113408801B030BD451EAD41ED0F284601B030BD2D
S1134098F0B581B0272002F0EAFE6748644C016855
S11340A8664E41F0006101607420A0604BF28045C7
S11340B80420E0604AF20267002020620720606260
S11340C8606A40F080006062606A400648BF03F09E
S11340D876F9EFF3108072B63780358080F3108854
S11340E820680006F0D5E06CA16C626C236CE56B6B
S11340F8A66B081810181818281830180004400C53
S113410840F40040E062E06EA16E626E236EE56DDD
S1134118A66D081810181818281830180004400C30
S113412840F4004020632420A0600420E0600020C4
S11341384349086043490860206A40F0400020620F
S1134148002060620C2020600420606001B0F0BD93
S1134158F0B581B0492002F08AFE3748354C016831
S1134168364E41F0800101607420A0604BF2804516
S11341780420E0604AF2026700202062072060629F
S1134188606A40F080006062606A400648BF03F0DD
S113419816F9EFF3108072B63780358080F31088F3
S11341A820680006F0D5E06CA16C626C236CE56BAA
S11341B8A66B081810181818281830180004400C92
S11341C840F40040E062E06EA16E626E236EE56D1D
S11341D8A66D081810181818281830180004400C70
S11341E840F4004020630420E06000201649086081
S11341F800222420A0600021206A40F040002062B0
S113420800206062082020604920606001B0BDE899
S1134218F04002F000BE0000188004400060034033
S11342280303020080080A0002D00740E0FDFF1FD4
S113423800B00340007002403C8004400C2005405C
S113424840D0044008A0044004A00440DFF820073C
S1134258016841F4785101600121DFF818074160D1
S11342684FF48072042141601021416002210160F1
S11342780821016020210160016941F00101016107
S1134288DFF8F4160A60036943F0020303614A6025
S1134298036943F0040303618A60036943F0080374
S11342A80361CA60036943F0100303610A61036987
S11342B843F0200303614A61012141600421416004
S11342C81021416002210160082101602021016060
S11342D8704700002DE9F04381B0DFF8A0462DEDCA
S11342E8028B82B08046206B40F080700E462063BB
S11342F803F06BF88068B0FBF8F903F066F800EE99
S1134308106AB8EE408A90ED020AB8EE400ADFED72
S1134318A20A80EE200A28EE000ADFEDA00A80EE49
S1134328200ADFED9F0A80EE200ABDEEC00A10EED7
S1134338105AADB2042D02DA15B1022500E00425A5
S113434803F043F890ED020AB8EE400ADFED920A52
S113435880EE200A28EE000ADFED910A80EE200A9A
S1134368BDEEC00A10EE100A012180B2A94090FBEC
S1134378F1F080B24028A8BF3F20042DBABF40EA1C
S1134388851085B240F0C005DFF8F475A7F80480FD
S11343981FFA89F1FE80480878803981EFF3108884
S11343A872B6DFF8E065316E41F03F013166401EB8
S11343B8716D41F00401716580B241F001017165CC
S11343C8B06041F04001716501234FF0FF31081AD4
S11343D8F0640022D6F88C0040F00400C6F88C0083
S11343E80721DFF8A4057066206840F0010020600A
S11343F823200090002003F0D3FBF06F40F001006D
S1134408F0674FF48061F06840F00800F06070696C
S113441840F008007061F06940F00800F061706ACB
S113442840F008007062F06A40F00800F062706BB7
S113443840F008007063306F3067B5660020B063E1
S11344483063B0623062B06130614FF40070C6F816
S11344589800F06E40F04000F066706D40F0020085
S11344687065306840F008003060D6F8840040F089
S11344784000C6F88400DFF80005016041608160EF
S1134488C16001614161706F40F040007067306E37
S113449880098001306688F31088002207F1200122
S11344A807F10C00FEF795FC002207F1240107F13F
S11344B81000FEF78EFC002207F1280107F1140012
S11344C8FEF787FC002207F12C0107F11800FEF71C
S11344D880FC042207F11D01781CFEF7F9FA02B0EA
S11344E807F11C01BDEC028B384601B0BDE8F0436E
S11344F80022FEF7EDBADFF8880440887047704759
S1134508DFF88804002181620162816101618160B0
S113451801604FF40071C0F88810016D89098901A0
S113452801657047DFF86804016841F03F010160E4
S113453841690A06D20F1CBF21F08F0141617047FF
S1134548DFF83C345B88584359435A434000DFF84A
S11345583C340014986249004042186209144842E5
S11345685200186112145042186099614FF4007097
S11345789A60C3F888007047DFF80804416D41F079
S113458804014165016841F008010160416F41F08F
S113459840014167704700000024744900007C42D0
S11345A800007A4430B5DFF8D85381B0002405F10F
S11345B81C012846FEF799FA58B92878042818BF28
S11345C8002806D1DFF8CC0300680006C00F18BF26
S11345D80124204601B030BD70472DE9F04104465E
S11345E80D46DFF89C6306F1200106F10C00FEF786
S11345F8FCFB074606F1240106F11000FEF7F5FB63
S1134608804606F11C013046FEF76FFA58FA87F126
S113461851FA80F706F11D01701CFEF766FA57FA85
S113462880F0002804BF3078002815D1224606F10E
S1134638200106F10C00FEF7CCFB2A4606F1240102
S113464806F11000FEF7C5FB06F11C013046BDE873
S1134658F0410122FEF73CBABDE8F081F0B5C84C40
S113466881B004F11C012046FEF73FFA002840F00F
S113467852812078F0B904F1280104F11400FEF7FE
S1134688B4FB054604F12C0104F11800FEF7ADFB58
S113469850FA85F0002840F03E81002204F12801F8
S11346A804F11400FEF795FB002204F12C0104F137
S11346B81800E8E0012856D104F11D01601CFEF73A
S11346C814FA054604F1280104F11400FEF78DFBE1
S11346D850FA85F504F12C0104F11800FEF785FB66
S11346E855FA80F0002840F01681232103F0FFFAE0
S11346F8A84865690078A669800606D56D1C2A460F
S113470804F1280104F1140005E0761C324604F192
S11347182C0104F11800FEF75CFB70191928C0F08D
S1134728FA8060780F2D28BF40F0010280F0E58000
S113473800F0FE0204F11D01601CFEF7C9F908210E
S1134748002003F0D4FA002204F1280104F1140033
S1134758FEF73FFB002204F12C0104F11800FEF7D8
S113476838FB0222CFE0022863D104F1200104F1CE
S11347780C00FEF73AFB054604F11D01601CFEF728
S1134788B4F9064604F1280104F11400FEF72DFBE0
S113479856FA85F151FA80F504F12C0104F1180058
S11347A8FEF723FB55FA80F0002840F0B480E06857
S11347B828B1421E04F1200104F10C0063E075489D
S11347C865690078A669800606D56D1C2A4604F139
S11347D8280104F1140005E0761C324604F12C018A
S11347E804F11800FEF7F5FA70191928C0F093803F
S11347F860780F2D1AD300F0FD0204F11D01601C2E
S1134808FEF766F92321002003F071FA002204F16F
S1134818280104F11400FEF7DCFA002204F12C014B
S113482804F11800FEF7D5FA03226CE040F0020206
S113483863E003286FD104F1240104F11000FEF7AA
S1134848D4FA054604F11D01601CFEF74EF906462C
S113485804F1280104F11400FEF7C7FA56FA85F1A9
S113486851FA80F504F12C0104F11800FEF7BDFAA1
S113487855FA80F000284ED1206948B1421E04F14F
S1134888240104F1100001B0BDE8F040FEF7A1BA1C
S1134898404F65693878A669800606D56D1C2A4696
S11348A804F1280104F1140005E0761C324604F1F1
S11348B82C0104F11800FEF78CFA701919282AD370
S11348C860780F2E17D300F0FB0040F0200204F1AB
S11348D81D01601CFEF7FCF8042204F11C012046AB
S11348E8FEF7F6F838680106C90F14D020F08F00D7
S11348F8386001B0F0BD40F0040204F11D01601CF1
S1134908FEF7E6F8042204F11C01204601B0BDE8D4
S1134918F040FEF7DDB801B0F0BD70B5184C04F1F5
S11349281C012046FEF7E1F804F11D01601CFEF7A6
S1134938DCF82078042815D1EFF3108572B6607876
S11349480426C10704D4810702D4400758BF0526AA
S1134958002204F11C012046FEF7BAF885F31088FA
S1134968304670BD00280CBF03260626304670BDAD
S113497838800440C4F00F4000C004400C80044058
S113498824FCFF1F008003407373730010800340EE
S1134998608003407480034010B56E4C002204F11B
S11349A80C01A01CFEF794F8002204F10D01E01C90
S11349B8FEF78EF8002204F10F01A01DFEF788F817
S11349C8182204F10A012046FEF782F8082204F1AD
S11349D80B01601CFEF77CF8002204F10E0104F1BF
S11349E80900FEF775F8FF20002120716171E0715C
S11349F8217210BD30B581B0EFF3108472B6554DF5
S1134A0805F10C01A81CFEF770F805F10A01284607
S1134A18FEF76BF8A9782878814203D30022242072
S1134A2800F09EF8A878421CD2B205F10C01A81C2B
S1134A38FEF74EF884F3108801B030BD30B581B06C
S1134A48EFF3108472B6434D05F10D01E81CFEF72F
S1134A584CF8E878421CD2B205F10D01E81CFEF7C7
S1134A6837F884F3108801B030BD30B581B0EFF366
S1134A78108572B6374C04F10C01A01CFEF735F80A
S1134A8804F10D01E01CFEF730F804F10A01204698
S1134A98FEF72BF804F10B01601CFEF726F804F16D
S1134AA80E0104F10900FEF720F804F10F01A01D1E
S1134AB8FEF71BF8E278A17891421CBF252000F08C
S1134AC84FF885F31088A0786178884217D2EFF3FD
S1134AD8108572B6A07948B9012204F10F01A01D0E
S1134AE8FDF7F6FF85F3108801B030BDA1780022E8
S1134AF8262000F035F885F3108801B030BD6179BF
S1134B08814238BF60712179884238BF2071A07909
S1134B18217A814238BF2072E179884238BFE07136
S1134B28EFF3108572B6002204F10C01A01CFDF706
S1134B38CFFF002204F10D01E01CFDF7C9FF00229C
S1134B4804F10F01A01DFDF7C3FF85F3108801B020
S1134B5830BD000074FDFF1F1B490020087070471A
S1134B6830B41A4B93F83C4004EB44056D00E85408
S1134B78ED186980AA80611CC9B20A29A8BF00215E
S1134B8883F83C10232818D8DFE800F01B17171700
S1134B98171B1B1B1B1B1B1B1B171717121212128D
S1134BA812121212121212121717171217171712BB
S1134BB807490848086030BC704730BC002002F040
S1134BC81CBC30BC704700004100002004000020D9
S1134BD80CED00E00400FA0581B00FF25412ADF8B0
S1134BE800009DF8010048409DF80010825C514087
S1134BF88DF801100FF23821405C8DF80000BDF8E3
S1134C08000001B0704700000346084602B9704727
S1134C1870B482B00FF218210FF21414D50711D50D
S1134C28ADF800009DF8015013F8010B68409DF899
S1134C380050065D75408DF80150405C8DF8000009
S1134C48BDF80000520825D0ADF800009DF80150C9
S1134C5813F8010B68409DF80050065D75408DF807
S1134C680150405C8DF80000BDF80000ADF8040068
S1134C789DF8055013F8010B68409DF80450065D33
S1134C8875408DF80550521E405C8DF80400BDF83F
S1134C980400D9D102B070BC70470000034608462E
S1134CA802B9704770B482B00FF284110FF2800415
S1134CB8D50711D5ADF800009DF8015013F8010B84
S1134CC868409DF80050065D75408DF80150405CC1
S1134CD88DF80000BDF80000520825D0ADF800009A
S1134CE89DF8015013F8010B68409DF80050065DCB
S1134CF875408DF80150405C8DF80000BDF8000047
S1134D08ADF804009DF8055013F8010B68409DF8B0
S1134D180450065D75408DF80550521E405C8DF8B0
S1134D280400BDF80400D9D102B070BC704700007B
S1134D3800102030405060708191A1B1C1D1E1F1DF
S1134D4812023222524272629383B3A3D3C3F3E3AF
S1134D582434041464744454A5B58595E5F5C5D57F
S1134D683626160676665646B7A79787F7E7D7C74F
S1134D784858687808182838C9D9E9F98999A9B91F
S1134D885A4A7A6A1A0A3A2ADBCBFBEB9B8BBBABEF
S1134D986C7C4C5C2C3C0C1CEDFDCDDDADBD8D9DBF
S1134DA87E6E5E4E3E2E1E0EFFEFDFCFBFAF9F8F8F
S1134DB89181B1A1D1C1F1E110003020504070605F
S1134DC88393A3B3C3D3E3F302122232425262722F
S1134DD8B5A59585F5E5D5C53424140474645444FF
S1134DE8A7B78797E7F7C7D72636061666764656CF
S1134DF8D9C9F9E99989B9A958487868180838289F
S1134E08CBDBEBFB8B9BABBB4A5A6A7A0A1A2A3A6E
S1134E18FDEDDDCDBDAD9D8D7C6C5C4C3C2C1C0C3E
S1134E28EFFFCFDFAFBF8F9F6E7E4E5E2E3E0E1E0E
S1134E380021426384A5C6E708294A6B8CADCEEFEE
S1134E4831107352B594F7D639187B5ABD9CFFDEDE
S1134E5862432001E6C7A4856A4B2809EECFAC8DCE
S1134E6853721130D7F695B45B7A1938DFFE9DBCBE
S1134E78C4E586A740610223CCED8EAF48690A2BAE
S1134E88F5D4B79671503312FDDCBF9E79583B1A9E
S1134E98A687E4C522036041AE8FECCD2A0B68498E
S1134EA897B6D5F4133251709FBEDDFC1B3A59787E
S1134EB888A9CAEB0C2D4E6F80A1C2E3042546676E
S1134EC8B998FBDA3D1C7F5EB190F3D2351477565E
S1134ED8EACBA8896E4F2C0DE2C3A081664724054E
S1134EE8DBFA99B85F7E1D3CD3F291B0577615343E
S1134EF84C6D0E2FC8E98AAB44650627C0E182A32E
S1134F087D5C3F1EF9D8BB9A75543716F1D0B3921D
S1134F182E0F6C4DAA8BE8C926076445A283E0C10D
S1134F281F3E5D7C9BBAD9F81736557493B2D1F0FD
S1134F3862F30F2262F31F4200B500BF13009646C6
S1134F489446103928BFA0E80C50FAD85FEA417C8F
S1134F5828BF0CC048BF40F8042BC90728BF20F855
S1134F68022B48BF00F8012B00BD000000B581B03A
S1134F7802F0D4FE4048FF21017101B001214170C3
S1134F88002101708170C180018141810321C170B8
S1134F982021C16001614161816100BD02F0CBBE85
S1134FA802F0CBBE00B583B034480078FF2803D0A4
S1134FB83248007802F021FA31480078012820D1DB
S1134FC82D4890F9000000281BD02E48B0F90000A5
S1134FD800280CD02C48B0F900202A48B0F9001059
S1134FE82A480078FEF75FFB234908703BE026480F
S1134FF8B0F9001025480078FEF726FC1E49087011
S113500831E01F480078022817D11B4890F90000A6
S1135018002812D01E48006801901E4800680090BD
S11350281D4803681D4802681D4801781748007820
S1135038FEF78CFB1049087015E011480078002829
S11350480AD11848B0F9001010480078FEF7FCFBA4
S113505804200B49087006E009480078042802D1A6
S1135068002005490870044890F90000012802DB73
S113507800200149087007BD840C0020880C00201A
S1135088850C00208A0C00208C0C0020860C002043
S11350989C0C0020980C0020940C0020900C0020FC
S11350A8870C00208E0C002000B581B000F07EF83B
S11350B800F042F9DFF8E4090021016641668166DF
S11350C8C165A0F83812C0F8481201B04FF4FA715B
S11350D8A0F83A120021A0F83C1200BD30B5DFF860
S11350E8C059DFF8B8496868206681B0A868606666
S11350F8E868A0662868E0652869E06600F032FA86
S113510801B0E06F2863D4F880006863D4F88400A1
S1135118A86330BD10B5DFF88449B4F84402B4F884
S1135128461288422AD048B10121A4F83812A4F8BA
S113513846024FF4FA71C4F848122BE00120FDF737
S113514812F901281AD1A4F838020020C4F8480238
S1135158B4F84402A4F846020020B4F93A12FEF75F
S113516873FB0020A4F838020120FDF7FCF800289E
S113517804BFBDE8104000F0DFB810BDB4F8440225
S1135188A4F84602B4F838020128EDD1D4F848024C
S11351980028E1D0B4F93A22D4F848120020FEF7E6
S11351A882FAA4F83C020028DED1DBE710B5DFF868
S11351B8EC482020A4F80401DFED890A4FF081406F
S11351C8C4F80C01C4ED450A9FED860ADFF8D4083B
S11351D8C4F81001C4ED460A84ED420ADFED820AE0
S11351E8DFF8C408C4F81C01C4ED070AB0EE001ABD
S11351F8DFF8B808E064C4ED0E0A84ED081ADFEDA0
S11352087B1ADFF8AC08606584ED3C0AC4ED091A22
S11352189FED772ADFF89C08C4F8E000DFED750AF3
S11352284FF07850C4F8E4009FED730ADFF888085B
S1135238C4F8E80084ED0A2A84ED0F1AC4ED101AA4
S113524884ED112AC4ED140AC4ED160A84ED7B0A10
S113525884ED7C0ADFF86408C4F8EC00DFF8600821
S1135268C4F8F40104F5F67002F06AFDDFF8540896
S1135278D4ED420AC4F888019FEDAE0AB4F80401DB
S113528884ED4D0A84ED540A00EE100A0020C4F897
S113529890019FEDA91ADFF83008C4F8940120EEB4
S11352A8811ADFF82808C4F86C0184ED4E1ADFED82
S11352B8A31ADFF81C08C4F8740184ED551AC4ED68
S11352C84F1A9FED9F2ADFF80C08C4F878019FED68
S11352D89D1AB8EE400A20EE811A21EE001A04F550
S11352E8277084ED631AC4F824029FED971A60EEC0
S11352F8810A04F5956020EE800AC4F82C02DFEDDB
S1135308930A80EE200A04F2A44084ED5C0AC4F8EF
S11353182802DFED8F0A94ED430ADFF8BC0784ED19
S1135328502A20EE200AC4ED561A84ED572AC4F8F0
S1135338200184ED490A10BDDFF860070021C0F898
S11353482C11C0F84811C0F86411C0F88011C0F8D5
S1135358C810C0F8CC10C0F8A010C0F8A410C0F849
S1135368BC10C0F8A810C0F8AC10C0F8B010C0F851
S1135378B410C0F8CC11C0F8D0110160416081604C
S1135388C160416101638164C0F8D810C0F8FC10A1
S1135398C0F80011C0F86C12C0F8B011C0F8B4110C
S11353A8C0F8B811C167C0F88010C0F88410C0F8FC
S11353B89C10A0F8D010B2EE040AB0F80411A0F8BA
S11353C8401280ED9C0A0021C0F8741280ED9E0AF8
S11353D8C0F87C12C0F88412C0F888127047000024
S11353E80AD7A33C6F128338000020420000FA4316
S11353F80000FAC335A6493B2AFFDA3C10B5DFF8AA
S11354089C46B4F9D000012852D094ED2A0AD4ED70
S1135418490AB4EE600AF1EE10FA26DB0020206097
S113542894ED940AD4F8C800D4ED470AA06020EE9D
S1135438600AD4F8CC00E06084ED010A00206061C1
S1135448606820630020A064D4F8A800C4F8D800D9
S1135458C4F8FC00D4F86C02C4F8000104F5F67032
S113546802F06EFC0120A4F8D000D4ED2A0A94EDD1
S1135478421A94ED9B0A00EE810ADFED360AB4EE77
S1135488600AF1EE10FAA4BFDFED330A30EE200A09
S1135498DFED320AB4EE600AF1EE10FA44BFDFED34
S11354A8300A30EE200A84ED9B0AD4ED2A0A20E063
S11354B894ED940A224604F1B80104F1C40002F000
S11354C85BFC94ED000AD4ED010A20EE000A00EE1C
S11354D8A00A02F02BFD84EDA20A04F5F67094EDFF
S11354E8120A02F031FC04F1D40002F0ADFCD4ED50
S11354F83F0A94ED431AC4ED940AC4ED2B0AC0EE96
S1135508810AC4ED2D0AF0EE401AD4ED2B0A94ED6D
S1135518421A40EE811AC4ED931A04F2AC4002F028
S113552819FD04F2B44094ED930ABDE8104002F06A
S113553811BD00000000784200701446000080434A
S1135548000080C36F12033C7FBBEE4300007A4423
S1135558368DA741DC0F4940DB0FC9C0DB0F49C0BA
S1135568DB0FC94010B5DFF8344594ED1B0AB5EEDE
S1135578400AF1EE10FA48BFB1EE400A84ED2C0A55
S1135588D4ED430A20EE200A84ED2A0A94ED1B0A7E
S1135598B5EE400AF1EE10FAACBF00200120A4F8E1
S11355A84202606EC4F89C01B4F8420228B1A06EAD
S11355B894ED180AC4F8980104E0206E94ED1A0AD0
S11355C8C4F8980184ED680AB4F84002B4F80411E8
S11355D8401CA4F8400280B2884247D3B4F844027D
S11355E8002843D1A4F84002B4F9D00098B994ED46
S11355F8480AD4ED290AC4F8A000B4EE600AF1EE12
S113560810FA05DBDFEDD00A70EE200AC4ED290A92
S113561884ED590A2AE094ED2C0AD4ED2D0A30EED3
S1135628600A84ED580A04F5B07003F023F9D4ED48
S1135638560A94ED301A94ED5A0A84ED290A70EE4C
S1135648C10A94ED331A002031EE400AC4F8A000D0
S113565804F5BE7094ED441A40EE010AC4ED5F0AE5
S113566803F008F9D4F88401C4F8A00004F5F07133
S113567804F5CC7003F060F904F2AC4204F1C401FF
S113568804F5F07003F080F9FFF7B8FED4ED430A8F
S1135698D4ED451A94ED462A94ED330AB4F844023D
S11356A8B7EE081A60EE810A71EEC21A94ED471A31
S11356B894ED322A21EE001A61EE821A01EE801A64
S11356C820EE810A84ED270A002800F041819FED2D
S11356D89F0AD4ED950AD4ED421A20EE801AD4ED2F
S11356E8990A41EE210A9FEDE71AF4EE410AC4ED46
S11356F8990AF1EE10FAA4BF9FEDE31A70EE810A3D
S11357089FEDE21AF4EE410AF1EE10FA48BF70EE8A
S1135718800AC4ED990A04F50C7094ED990A02F014
S113572819FCB4F84402022823D194ED960AD4ED66
S11357388D0A60EE200AC4ED810A0020D4ED8C0A9B
S1135748C4F8D00120EE200A84ED820A94ED970A69
S1135758D4ED810A84ED730A30EE200A84ED730ACD
S1135768DFEDCB0A94ED820A30EE200A84ED740A48
S11357784DE001284BD104F50C7204F5037104F5CE
S1135788F07003F001F994ED980AD4ED840A30EE30
S1135798600A84ED4A0A04F5947094ED850AD4ED00
S11357A8170AB1EE400A84ED510A9FEDBA0A20EEB9
S11357B8800A84ED4F0AB1EE400A84ED500A03F0E2
S11357C859F89FEDB51A94ED170AD4ED4C0AC4EDB7
S11357D8870A20EE000A20EE010A00EEE00A02F031
S11357E8A5FB84ED560AB1EE400A84ED570A04F588
S11357F8A27003F03FF8D4F84C01C4F8200204F571
S11358080C7204F5E47104F5067003F0DCF894ED09
S1135818690AD4ED170A94ED171AD4ED171A20EE75
S1135828200AD4ED6A0A84ED6F0A60EE810A94EDC9
S11358386B1AC4ED700A21EE211A70EE201A71EE6B
S1135848811A9FED952A61EE821A30EE610A84ED81
S11358586F0A30EEE10A84ED700A84ED711A31EEB4
S1135868610A84ED710A04F5EA7104F5DE7003F047
S113587863F894ED760AD4ED770A20EE000A00EE78
S1135888A00A02F053FB84EDA00A94ED790AD4ED42
S11358987A0A20EE000A00EEA00A02F047FBD4EDD3
S11358A8A00A94EDA41A84EDA10AB4EE601AF1EEEC
S11358B810FA48BFC4EDA40A94EDA31AF4EE410A01
S11358C8F1EE10FA48BFC4EDA30AD4ED9D0AF4EE34
S11358D8400AF1EE10FA48BF84ED9D0AD4ED9C0A03
S11358E8B4EE600AF1EE10FA48BF84ED9C0AD4EDD8
S11358F89A0A94ED990AF5EE400AF1EE10FA20D5C9
S1135908B5EE400AF1EE10FA1BDDD4F87402C4F8BF
S11359187C020020C4F87402D4F87002C4F8780237
S11359286E48C4F87002D4F89002C4F898020020B3
S1135938C4F89002D4F88C02C4F894026848C4F8F5
S11359488C0284ED9A0A49E00AD7233DDB0FC9404B
S113595894ED280AD4ED320A30EE600A84ED4A0A3E
S113596894ED290AD4ED330A30EE600A84ED510A25
S11359789FED480AD4ED170A20EE800A84ED4F0AF9
S1135988B1EE400A84ED500A04F5947002F072FFF7
S113599894ED170A9FED401A20EE000AD4ED4C0A44
S11359A8C4ED2F0A20EE010A00EEE00A02F0BEFA66
S11359B884ED560AB1EE400A84ED570A04F5A27044
S11359C802F058FFD4F84C01C4F8C00004F2B44201
S11359D804F5E47104F1B80002F0F5FF04F2B442EE
S11359E804F1B80104F5E47002F0CEFF002204F5D6
S11359F8D27104F5E47094ED170A03F003F8D4F8AF
S1135A08A401C4F8B001D4F8A801C4F8B401D4F8C6
S1135A18AC01C4F8B801B4F83E02012808D104F571
S1135A28097204F5D87104F1600003F0B1F807E0D5
S1135A38022805D104F5D87104F1600003F034F9A3
S1135A48D4F8B401C4F88000B4F8420268B1D4F8B8
S1135A58B80194ED2D0AE067B1EE400AD4F8B0011C
S1135A68C4F8840084ED260A10BDD4F8B00194ED7E
S1135A782D0AE06784ED260AD4F8B801C4F8840036
S1135A8810BD00BFDC0F4940DB0FC9C0DB0F49C0A4
S1135A98000000003ACD133FABAAAA3E2805002017
S1135AA844F0FF1F0000A0409A99993DC10F7C3F24
S1135AB8370E81380000C84200409C4600409CC60E
S1135AC8FD4F72BF6F12033B0000A0C0A7741C3CBB
S1135AD80000C0400000C0C0CDCCCC3D0000204137
S1135AE80000484300B581B006221821042003F0C1
S1135AF8C3F92F480121017001B0002181800022DF
S1135B080121417018215DF804EB042003F009BA5F
S1135B1810B5274C6078401E6070C0B200283ED192
S1135B28082060700D210020FDF7AEFF001460808E
S1135B382078012804D032D303282BD019D310BDE0
S1135B480D210020FDF7A0FF0014A18880B288422F
S1135B58ACBF411A091A89B2A08003291FDA6088E8
S1135B68C8281CDB01221821042003F0DAF90220DA
S1135B7814E060888C2806DA00221821042003F037
S1135B88D0F903200AE0BDE81040012218210420BE
S1135B9803F0C7B96088C92801DB0120207010BD53
S1135BA8034909780020022914BF042901207047F9
S1135BB8EEFDFF1F10B5DFF894490020C4F8F40087
S1135BC8C4F8444204F2A110C4F85401C4F81442BD
S1135BD804F5D070C4F8500104F16C00C4F8F8005E
S1135BE804F17000C4F8FC0004F17800C4F8000162
S1135BF804F17400C4F8040104F1B800C4F80801FD
S1135C0804F1A000C4F8100104F1A400C4F81401BC
S1135C1804F19C00C4F8180104F1AC00C4F81C0198
S1135C2804F1D000C4F80C0104F1C000C4F8200148
S1135C3804F1B000C4F8240104F1B400C4F8280144
S1135C4804F15800C4F82C0104F16000C4F83401CC
S1135C5804F14400C4F8380104F15000C4F83C01CC
S1135C6804F15400C4F8400104F12400C4F84401C8
S1135C7804F1D400C4F8300104F1E400C4F8480184
S1135C8804F1E800C4F84C0104F5AE70C4F840020D
S1135C9804F5AC70C4F8380204F5CA70C4F83C02C0
S1135CA804F12800C4F8500204F12C00C4F8480296
S1135CB804F13800C4F84C0204F1F400C4F85402A6
S1135CC804F12C00C4F8180204F18800C4F8240272
S1135CD804F15C00C4F8300204F17000C4F828022E
S1135CE804F5AC70C4F8200204F1C400C4F82C0212
S1135CF804F5AE70C4F81C0204F1F400C4F83402CC
S1135D0804F5B470C4F8B40204F17800C4F8B80215
S1135D1804F19000C4F8BC0204F1F400C4F8C00211
S1135D2804F19000C4F8580204F1BC00C4F86002FD
S1135D3804F19400C4F85C0204F5AC70C4F864027D
S1135D4804F19800C4F8680204F1B000C4F86C02C5
S1135D5804F1F400C4F8700204F19800C4F8F001E6
S1135D6804F1AC00C4F8F40104F5AC70C4F80402FE
S1135D7804F1B000C4F8E80104F15800C4F8EC01D7
S1135D8804F11800C4F8080204F10C00C4F80C0269
S1135D9804F18800C4F8F80104F17C00C4F8FC019B
S1135DA804F1F400C4F8100204F10C00C4F87802F9
S1135DB804F5C470C4F8840204F5CA70C4F88002F7
S1135DC804F5AC70C4F8740204F5AE70C4F87C022F
S1135DD804F1F400C4F88802C4F8CC0204F1F00019
S1135DE8C4F8C80204F1EC00C4F8C40200F06AFA6A
S1135DF8002084F8D902BDE8104003F0B9B810B502
S1135E08DFF84847D4F8F400C0F34000002800F055
S1135E18A580D4F8E402D4F8FC12C4F8D002021D18
S1135E28C4F8B021C4F8D41201F11802C4F8B4219A
S1135E38D4F8E822C4F8C02102F10803C4F8B83140
S1135E48C4F8CC21131DC4F8BC31C4F8D82102F11C
S1135E584803C4F8C431131DC4F8C83102F18803D7
S1135E68121DC4F8D421C4F8D031D4F8F8224AB1A8
S1135E78C4F8E42102F10803121DC4F8DC31C4F8A3
S1135E88E02101E0C4F8DC21D4F8EC22C4F88C2227
S1135E9801F13C02C4F890226031D4F8F422C4F829
S1135EA89C2202F10803121DC4F89822C4F8A41213
S1135EB800F19C02D4F8F012C4F8A022C4F8B0127D
S1135EC801F10802091DC4F8AC12C4F8943200F5B3
S1135ED8D871C4F80013C4F8A8224168C4F8D010D3
S1135EE8E4300021C4F8D41003F04CF9D4F8E402E7
S1135EF890ED540A00F07EFB04F5347003F0F1F9D8
S1135F0804F5D87104F5057003F051FC04F5237108
S1135F1804F52D7003F0B1FD03F0A1FED4F8E402FA
S1135F2800F1440104F5F47003F0DBFE04F540715C
S1135F3804F51D7004F058F8D4F8E40290ED530AFF
S1135F48D4F8F400B8EEC00AF7EE000A80EE800A2E
S1135F5840F0010084EDCE0AC4F8F40010BD00003E
S1135F6810B5DFF8E8452DED028B94F8F400C0076E
S1135F7840F1848094ED570AD4EDCA0A94EDCB1A03
S1135F88D4EDCC1A94ED1D2AB4F8DC02D4F8E4124A
S1135F9840EE000A94ED580AC4EDCA0A00EE001A4D
S1135FA894ED590A84EDCB1A40EE001A94EDCD0A0B
S1135FB830EE020A401CC4EDCC1A84EDCD0AA4F8D4
S1135FC8DC0280B2D1F84C11884222DB30EE810A1F
S1135FD830EE210ADFEDB90A20EE200AD4EDCE0A0C
S1135FE820EE200A01F0A2FF84ED330A94EDCD0AD5
S1135FF8D4EDCE0A20EE200A002084ED320AA4F85B
S1136008DC02C4F82803C4F82C03C4F83003C4F829
S1136018340394ED0C0AD4ED010A94ED021A94F8B1
S1136028A10120EE200AD4ED0D0A00EE810AF7EE54
S1136038080A20EE208A88B90120FCF794F901287F
S11360480CD194ED360ADFED9E0A20EE200ADFED2E
S1136058BF0A08EE200A84ED360A02E00020C4F8DC
S1136068D800D4ED5A0A94ED2B0AF5EE400AF1EE65
S113607810FA48BFB1EE400A84ED380ABDEC028B31
S113608810BD10B5DFF8C44494F8F400C0072CD54B
S1136098D4F8B80010F1010F1CBF401CC4F8B800B4
S11360A894ED5A0AB5EE400AF1EE10FA48BFB1EE83
S11360B8400A84ED1B0A04F5347104F50E7003F0EC
S11360C88DF904F5D87104F5057003F095FB04F512
S11360D8237104F52D7003F0FDFC04F5287104F513
S11360E81670BDE8104003F0BBBD10BD10B5DFF855
S11360F85C4494F8F400C00740F18F8094F8D912F6
S1136108B4F8E002072211424FD094F8D912890753
S113611824D494F8D912C9071DD594F8A11141BB08
S1136128D4F8E41294ED1D0AD1ED310AB4EE600AF4
S1136138F1EE10FA09D5E8B9D1F8D000012184F8B4
S1136148A111002184F8A01133E0012084F8A001F2
S1136158D1F8CC002DE0012184F8A011D4F8E41280
S113616894ED1D0AD1ED320AB4EE600AF1EE10FA8C
S11361781BD508B1401E1CE094F8D91201F0FB01AC
S113618884F8D91294F8D91201F0FE0184F8D912CE
S113619894F8D91201F0FD0184F8D91294F8D912AF
S11361A841F0080184F8D91203E0D4F8E402D0F8E5
S11361B8CC00A4F8E002D4F8B80058B30120FCF7E6
S11361C8D2F8012826D194ED571AD4ED580AD4F8F8
S11361D8E40294ED590A21EE011A00EEA01A00EE29
S11361E8001A90ED380AB4EE410AF1EE10FA04D41C
S11361F8D4F8F400C0F3001038B1B4F8DE024FF656
S1136208FF71884209D0401C05E0B4F8DE0220B1D1
S1136218401E00E00020A4F8DE0210BD10B502F014
S1136228E1FEDFF8284394F8F400C00745D502F0EE
S113623883FFD4F8E40284ED1A0AB7EE001AD0ED0D
S1136248520A30EE600AD0ED510A00EE201A90EDA1
S11362584E0A21EE000A84ED340AE43002F0B7FF56
S113626804F5237104F52D7003F03DFCD4F8E40221
S113627800F1440104F5F47003F0E4FD04F51D7025
S113628803F014FFD4F8E40290ED550ADFED300A68
S113629820EE200AD4ED1B0AF4EE400AF1EE10FABF
S11362A8A2BFD4ED1D0AF4EE400AF1EE10FA04DBA5
S11362B8BDE81040002000F0BFBA10BDABAAAA3E4A
